:02000004080AE8
:1000000000000A08F4280A0800000500060005019F
:080010000402E80300000000F7
:10001800501C0A0809480A4908B5884205D0094A07
:10002800824202D0121A01F0CBFD0748074A00218C
:10003800121A01F0D0FD064808BD00BF00030020D9
:1000480054240A087807002078070020340D00207F
:10005800340D002070B501F05FFB074B074C1E46BE
:10006800E41AA4080025A54204D056F8253098477C
:100078000135F8E770BD00BF14240A084C240A08AB
:1000880000F01EB808B500F03FF8BDE8084001F0E0
:1000980005BB00F069BF000008B5034A00210C2029
:1000A80000F01EFFFEE700BF850C0A080078B0FAD2
:1000B80080F04009704701230370704770470000C3
:1000C80010B50D4C3C220221204600F06FFC0721A0
:1000D800204600F02DFA0121204600F02EFA0021DA
:1000E800204600F02DFA204600F02EFA034B044A71
:1000F8001860044B1A6010BD940700209007002078
:1001080024FAFFFF7C07002010B5114C114800F0BD
:1001180093FD2368022193FBF1F1072209B20D48F0
:1001280000F003FA0C4B0B48196800F0F7FF094878
:1001380000F00CFD094A23681268013B93422360D2
:1001480004DA044800F000FA4000206010BD00BF47
:100158009007002094070020800700207C070020DB
:1001680010B50446FFF795FF204610BD38B50D4C75
:1001780000F094FD0C4D042305220321204600F0D5
:10018800BBFB2046094C2A46094901F0BDFB094939
:10019800204601F0DDF82A462046BDE838400649E9
:1001A80001F0B2BB940700207807002080070020E8
:1001B800C5000A08641C0A08CB120A082DE9F04F8A
:1001C8001E4685B0BDF9383015469A1A002AB8BFC0
:1001D80052420092721A002AB8BF524201920C464B
:1001E800009A019981468A42BDF83CA005DD324655
:1001F8001E46134622462C461546B44205DD2A46BD
:100208001D4613462246344616465A1B002AC4EB9E
:100218000608B8BF52421FFA88F803920FFA88F707
:1002280002229D42B4BF01234FF0FF3397FBF2F740
:100238000293B4421FDC019A009B48469342D9F8C6
:100248000030C8BF2246D3F810B0C8BF294653466D
:10025800DCBF2A462146D847039BFF1ABBB21FB210
:10026800002F05DA029A08EB030715442DB23FB2B6
:10027800013424B2DDE705B0BDE8F08F2DE9F3477E
:10028800044691460D469846BDF82C600768BDF9AE
:1002980028A00096FF69B84723680AF1FF32009644
:1002A8004A44DF6929464346204612B2B8472368C4
:1002B80000969F694A46534629462046B847236810
:1002C80008F1FF310A9629449D694A46534620465B
:1002D800AC4609B202B0BDE8F047604737B5013B0C
:1002E800BDF81850134404681BB200930195646963
:1002F8000B46A04703B030BD37B5BDF818500468A9
:100308008DE82400013B0B4464691BB2A04703B08D
:1003180030BD2DE9F347054617460C46BDF9288040
:10032800BDF82C9001EB030A54450BDA2B68CDF885
:1003380000909E69214643463A4628460134B04714
:1003480024B2F1E702B0BDE8F08713B5B0F90E208A
:100358000468019100920022B0F90C30646A1146D9
:10036800A04702B010BD7047018181814FF6FF712F
:1003780030B5074D00244281C281012244600560E6
:100388004476048244820276C1828182827630BDBC
:100398007C1C0A082DE9F04F8FB00691BDF860105B
:1003A80004460791BDF864109DF868800891B0F97B
:1003B8000C10069881427DDDB4F90E10914279DD6A
:1003C800062101FB0800002874DD02EBC8000028A4
:1003D80070DD03EB830395B20C9305F108039BB220
:1003E800099100260D932F46A946052E1FBF334BB2
:1003F8000C9A9B1913F802A01FFA88F30493049926
:10040800BDF81830B2B201FB0231134409B20A91A7
:100418001BB20FFA88F108BF4FF0000A0595039147
:100428000B931AF0010F11D0B8F1010F236803D113
:10043800D3F810B0079B14E0079A0192039A009230
:10044800D3F824B013460FFA89F218E0079B089AEC
:10045800934217D0B8F1010F236807D1D3F810B031
:1004680013463AB20B992046D8470BE0089A0192F6
:10047800039A0092D3F824B01346BDF914200A99C0
:100488002046D847049B049A9944059B0137134496
:100498009BB205930D9BBFB29F424FEA5A0A1FFABF
:1004A80089F9BED1099B0136013B13F0FF0376B2EF
:1004B800099398D10FB0BDE8F08F00BFAC1C0A08B3
:1004C80030B50A2985B004460B4604D1027E438A1A
:1004D80003EBC20323E00D2924D0057EB0F91220D6
:1004E800B0F910100295C58A0195858A0095FFF725
:1004F80051FF227E238A91B201EB410003EB4003B6
:10050800A07E1BB2238268B1B4F90C006FF0050518
:1005180005FB0202934205DD638A03EBC103638294
:1005280000232382012005B030BD0182428270473A
:10053800002908BF012101767047C1828182704776
:1005480081767047407E7047B0F90C007047B0F96B
:100558000E00704700F0A2BBF0B5447EBDF8145001
:10056800022C08D0032C0FD0012C70D10489013C37
:10057800A21A12B20CE04489013CA21A048912B2F0
:10058800E41A611A09B262E04489E41A611A09B2EC
:10059800002A5BDBB0F90840944240F390800029C0
:1005A800BEBF5B181BB20021B0F90A00CC18844208
:1005B800C4BF431A1BB2002B40F38180C9B2C808DC
:1005C8003F4F02EBC01211F00701DBB207EB020448
:1005D80017D0C1F10801C8B23A4983420E5C3FBF47
:1005E800C3EB000EFF2141FA0EF10E40B95C012D5C
:1005F8000CBF3143B1438342B95460D3181AC3B214
:100608008034072B17D9012D0CBFFF2000201A4674
:1006180004F18001083AD2B2072A01F8800C01F1EE
:100628008001F7D8A3F10802C2F3C402013204EB37
:10063800C21403F00703002B41D0234A012DD25CDA
:1006480023780CBF134393432370F0BDF0BD002AF9
:1006580035DBB0F90A40944231DD0029BCBFC91826
:100668000BB2B0F90870B8BF0021CE18BE42C4BFA3
:10067800631A1BB2002B22DDD01001EBC011104809
:1006880002F007020144012000FA02F28542D2B2C8
:1006980009D1013B1BB25C1C11D011F8010B1043AE
:1006A80001F8010CF5E7D243D2B2013B1BB2581C4A
:1006B80005D011F8010B104001F8010CF5E7F0BD69
:1006C800100300200803002000030020F0B5447E3A
:1006D800BDF81450022C08D0032C0FD0012C12D1D5
:1006E8000489E41AA21A12B26DE00489013C611A65
:1006F800448909B2E41AA21A12B204E04489013CFE
:10070800611A09B25FE000295CDBB0F908408C424D
:1007180040F39180002ABCBFD21813B2B0F90A0086
:10072800B8BF0022D4188442C4BF831A1BB2002B5E
:1007380040F38180D4B2404EDAB2E30801EBC31132
:1007480014F0070406EB010317D0C4F10804E0B263
:100758003A4C8242275C3FBFC2EB000EFF2444FAAA
:100768000EF42740745C012D0CBF3C43BC4382420D
:10077800745460D3101AC2B28033072A17D9012DD6
:100788000CBFFF240024114603F180000839C9B2C8
:10079800072900F8804C00F18000F7D8A2F1080181
:1007A800C1F3C401013103EBC11302F00702002AAF
:1007B80041D02349012D895C1A780CBF0A438A432A
:1007C8001A70F0BDF0BD002935DBB0F90A408C4243
:1007D80031DD002ABCBFD21813B2B0F90870B8BF17
:1007E8000022D618BE42C4BFA31A1BB2002B22DDBA
:1007F800C81002EBC012104801F007011044012292
:1008080002FA01F19542C9B209D15A1E13B25C1C11
:1008180011D010F8012B0A4300F8012CF5E7C94361
:10082800C9B25A1E13B25A1C05D010F8012B0A403F
:1008380000F8012CF5E7F0BD1003002008030020A4
:100848000003002010B422B11946054810BC00F07E
:100858002FBD0122C9B2C0B210BC00F0D7BF00BF83
:10086800740C0020F8B50D1E064614461F463FDBE3
:10087800FFF76AFE85423BDA002C39DB3046FFF78A
:1008880066FE844234DA3046FFF75CFE022827D140
:100898003189708901390138491B001B0DB204B236
:1008A80006E0012804D13389013B1B1B2C461DB2ED
:1008B800082094FBF0F0012F00B20E4B04F0070261
:1008C80005EBC01104D197405A5C17435F54F8BD3B
:1008D800585C012707FA02F220EA02025A54F8BDCE
:1008E8000328DED17389013B5B1B25461CB2DFE779
:1008F800F8BD00BF10030020F8B504461D460F469A
:10090800164680214022FFF72FFD064BE77723602C
:10091800012384F8206084F8215084F8223020468E
:10092800F8BD00BFB0210A0838B590F91D3004465B
:1009380001330D4622D090F92100012180B200F048
:100948004CFF94F91F00002180B200F046FF94F993
:100958002100002180B200F040FF94F91E1094F9A4
:100968001D002B4694F82220FFF76CFF94F9210014
:10097800012180B2BDE8384000F02FBF00F06AFFC7
:1009880094F91B1000F054FB00F064FF0368002189
:100998009B68984700F05EFF036829469B68984764
:1009A80000F058FFBDE8384000F049BB38B50446B0
:1009B800217790F91D300D460133C27633D090F976
:1009C8001F00012180B200F0F7FE94F921000121F7
:1009D80080B200F0F1FE94F822305BB994F91D0062
:1009E800012180B200F0E8FE94F91E00012180B2D6
:1009F80000F0E2FE94F82230CBB194F921000121F5
:100A080080B200F0EAFE01214F4800F0F0FB10210F
:100A18004D4800F039FC00214B4800F0EBFB4A48F8
:100A280000F0E0FB03E000F015FF00F0F7FA94F99E
:100A38002000012180B200F0BFFE94F920000121BE
:100A480080B200F0CAFE012000F09EFA94F920005E
:100A5800002180B200F0C1FE0A2000F095FA94F956
:100A68002000012180B200F0B8FE2046AE21FFF739
:100A78005BFF2046D521FFF757FF20468021FFF76F
:100A880053FF2046A821FFF74FFF20463F21FFF7DD
:100A98004BFF2046D321FFF747FF20460021FFF7F1
:100AA80043FF20464021FFF73FFF8D212046FFF7F7
:100AB8003BFF012D0CBF102114212046FFF734FF06
:100AC80020462021FFF730FF20460021FFF72CFFAA
:100AD8002046A121FFF728FF2046C821FFF724FF61
:100AE8002046DA21FFF720FF20461221FFF71CFFDE
:100AF80081212046FFF718FF012D0CBF9F21CF2130
:100B08002046FFF711FFD9212046FFF70DFF012DE1
:100B18000CBF2221F1212046FFF706FF2046DB21EA
:100B2800FFF702FF20464021FFF7FEFE2046A421E2
:100B3800FFF7FAFE2046A621FFF7F6FE2046BDE89D
:100B48003840AF21FFF7F0BE740C00202DE9F041CA
:100B580004462121FFF7E8FE00212046FFF7E4FEC6
:100B68007F212046FFF7E0FE22212046FFF7DCFE2A
:100B780000212046FFF7D8FE07212046FFF7D4FEC4
:100B880094F91D30DFF8AC8001332ED094F92100A0
:100B9800012180B200F021FE94F91F00012180B2EA
:100BA80000F01BFE94F92100002180B200F015FE30
:100BB800012000F063F8002518F8053094F8222089
:100BC80094F91E1094F91D000135FFF73BFEB5F5A9
:100BD800806FF1D1012000F051F894F92100012132
:100BE80080B2BDE8F04100F0F8BD002500F032FE0B
:100BF80094F91B1000F01CFA00F02CFE0368402149
:100C08009B689847002600F025FEAF190368BFB21D
:100C18009B6818F8071001369847102EF3D1103545
:100C280000F018FEADB200F00AFAB5F5806FDDD11C
:100C3800BDE8F081100300204FF4806200210148D4
:100C480000F0C9BF1003002000F028B808B5024B17
:100C58001B681B6B019308BDD001060808B5024B41
:100C68001B68DB6E019308BDB801060808B5024B86
:100C78001B685B68019308BD9C01060808B5024B18
:100C88001B68DB68019308BD9C01060808B5024B88
:100C98001B685B69019308BD9C01060808B5024BF7
:100CA8001B681B68019308BDB001060808B5024B14
:100CB8001B689B68019308BDB001060808B5024B84
:100CC8001B68DB68019308BDB001060808B5024B34
:100CD8001B681B69019308BDB001060808B5024BE3
:100CE8001B68DB6C019308BDAC01060808B5024B14
:100CF8001B689B6D019308BDAC01060808B5024B43
:100D08001B68DB6D019308BDAC01060808B5024BF2
:100D18001B681B6E019308BDAC01060808B5024BA1
:100D28001B685B6E019308BDAC01060808B5024B51
:100D38001B689B6E019308BDAC01060808B5024B01
:100D48001B68DB6E019308BDAC01060808B5024BB1
:100D58001B681B6F019308BDAC01060808B5024B60
:100D68001B685B6F019308BDAC01060808B5034B0F
:100D78001B68D3F88030019308BD0000AC01060859
:100D880008B5024B1B681B68019308BDB40106082F
:100D980008B5024B1B689B68019308BDB40106089F
:100DA80008B5024B1B68DB68019308BDB40106084F
:100DB80008B5024B1B681B69019308BDB4010608FE
:100DC80008B5024B1B685B69019308BDB4010608AE
:100DD80008B5024B1B68DB69019308BDB40106081E
:100DE80008B5024B1B681B6A019308BDB4010608CD
:100DF80008B5024B1B685B6A019308BDB40106087D
:100E080008B5024B1B689B69019308BDC40106081D
:100E180008B5024B1B685B6A019308BDC40106084C
:100E280008B5024B1B689B6A019308BDC4010608FC
:100E380008B5024B1B68DB6A019308BDC4010608AC
:100E480008B5024B1B681B6B019308BDC40106085B
:100E580008B5024B1B685B6B019308BDC40106080B
:100E680008B5024B1B689B6B019308BDC4010608BB
:100E780008B5024B1B681B6C019308BDC40106082A
:100E880008B5024B1B681B68019308BDD80106080A
:100E980008B5024B1B681B69019308BDD8010608F9
:100EA80008B5024B1B685B69019308BDD8010608A9
:100EB80008B5024B1B689B69019308BDD801060859
:100EC80008B5024B1B68DB69019308BDD801060809
:100ED80008B5024B1B681B6A019308BDD8010608B8
:100EE80008B5024B1B685B6B019308BDA80102089B
:100EF80008B5024B1B685B68019308BDA40106088E
:100F080008B5024B1B685B69019308BDA40106087C
:100F180008B5034B1B68D3F89030019308BD000057
:100F2800A401060808B5034B1B68D3F89C3001934D
:100F380008BD0000A401060808B5024B1B68DB6B5E
:100F4800019308BDCC01060808B5024B1B681B6954
:100F5800019308BDC801060808B5024B1B681B6849
:100F6800019308BDA001060808B5024B1B685B6821
:100F7800019308BDA001060808B5024B1B689B68D1
:100F8800019308BDA00106080021FFF7B9BF10B5FD
:100F98008368044613B1032201469847204610BDD2
:100FA8007047F8B5064615460C468F18BC4206D061
:100FB800336814F8011B9B6830469847F6E72846C3
:100FC800F8BD0022007CFFF7A1BE0021007CFFF7DE
:100FD800A5BE0021007CFFF7A9BE0021007CFFF719
:100FE800ADBE0021007CFFF7B1BE10B50446FFF787
:100FF80050F8204610BD000010B5044608464FF4CE
:101008007A73A360044B0021207461602360FFF7AA
:10101800ADFE204610BD00BFE8210A0800231A468D
:101028001946007CFFF75ABE0022007CFFF75EBE1F
:10103800C9B2FFF7F9BF0022007CFFF75FBE0121AC
:10104800FFF7F9BF0021007CFFF788BE704710B595
:101058000446FFF71EF8204610BDF8B50F4600F10C
:101068000806051D002416F8011D0A22384600F05E
:1010780086F8AE42044407D0002CF4D02E2138461E
:1010880000F050F80444EEE72046F8BD10B59DF88E
:10109800084044EA032343EA024242EA0161042386
:1010A8004160037510BD000037B5044D05609DF81B
:1010B80018500095FFF7EAFF03B030BD10220A0868
:1010C800014A024B1A607047D7220A08B807002065
:1010D800F8B506460D468F180024BD420CD033687B
:1010E80015F8011B9B6830469847002801DB04442B
:1010F800F3E7002C08BF04462046F8BD70B5054646
:101108000C46084649B100F097FD2B680246214677
:101118002846BDE87040DB68184770BD08B5FFF782
:10112800EDFF08BD03689B681847012A98BF0A228B
:1011380030B50B468BB000218DF824100DF1230437
:10114800B3FBF2F505FB1233DBB2092B94BF303346
:101158003733DBB2214604F801392B46002DEFD195
:10116800FFF7CCFF0BB030BD10B422B90368C9B289
:101178009B6810BC1847D2B210BCFFF7D6BFFFF768
:10118800F3BF10B50446FFF702FF204610BD00006C
:10119800034800238360034A034900F0B5BB00BF3E
:1011A800BC070020780700208B110A08704710B58B
:1011B8000446FEF76EFF204610BD000070B50446D9
:1011C8000E46074B0025036040F80C5FFFF73EFD15
:1011D80030462671FFF7FCFDA560204670BD00BFB4
:1011E80008230A084FF6FF710079FFF7C9BD007997
:1011F800FFF7CEBD0079FFF7D3BD0000054A0023F5
:10120800995C814202D00133082BF9D1581CC0B235
:10121800704700BF10230A08400830B51860002442
:101228001868E5B2884206D90134082C02D0400873
:101238001860F5E70725024B5B5D137030BD00BFF2
:1012480010230A0870B5044602FB01F588B0067938
:101258001422002103A800F0BEFC0B2303A930468A
:101268000022ADF80C30FFF7C3FD02AB0DF1070209
:1012780029460498FFF7D0FF20799DF80710FFF75B
:1012880097FD029808B070BD38B50446A5680846B1
:101298004DB1FFF7B3FF012225FA00F12046BDE862
:1012A8003840FFF7CFBF2079BDE83840FFF780BD51
:1012B80008B50079FFF784FDC0B208BD0079FFF7D3
:1012C8008FBD10B504460068FFF74EFE204610BDDE
:1012D80010B50446006808B1FFF746FE00232360F6
:1012E800A360636010BD38B504460D46006801313F
:1012F800FFF742FE10B184E82100012038BD10B587
:101308000368044613B143688B4207D22046FFF7AF
:10131800EAFF20B1A3680BB922681370012010BD41
:1013280070B50E46114604461546FFF7E8FF18B992
:101338002046FFF7CDFF09E02A463146A560206820
:1013480000F03EFC2268A3680021D154204670BDFD
:1013580038B50023044603604360836003730D4679
:1013680039B1084600F068FC294602462046FFF7D6
:10137800D7FF204638BD00004FF69C7337B50D4C9B
:10138800002563804FF6FF732846A3802570FFF77A
:10139800AFFD02A840F8045D2A462946FFF75EFC27
:1013A800019B1E2B04D10323237011236580A38086
:1013B80003B030BDCC070020024B1A68024B1A60FC
:1013C800704700BF10070020D40700207047417401
:1013D8007047007CFFF74CBD007CFFF721BD007C07
:1013E800FFF72EBD007CFFF723BD007CFFF730BD63
:1013F80010B50446FEF74DFE204610BD70B5457C7D
:1014080004460E4625B9007CFFF732FD002805DDAD
:101418003146207CBDE87040FFF7FABC284670BD15
:1014280010B5044608461146002262604FF47A72ED
:10143800A260054A20742260012262741A46FFF7EE
:10144800DFFC204610BD00BF4C230A08007CFFF7D4
:1014580007BD000038B50C4D296811F0010411D101
:101468002846FEF723FE68B1084A2146084B09487A
:10147800FFF7D6FF2846FEF71EFE074A074905482C
:1014880000F042FA034838BD7008002074080020B4
:10149800EC070020D807002078070020D5130A0899
:1014A8004174704770470021007CFFF701BD01219E
:1014B800007CFFF7FDBC007CFFF7F2BC007CFFF767
:1014C800E7BC38B50446007C0D46FFF7E9FC002868
:1014D80001DC607C20B12946207CFFF7F1FC01206B
:1014E80038BD007CFFF7F4BC10B50446FEF7D1FD0B
:1014F800204610BD10B50446002363604FF47A738C
:10150800A360054B084623600123217463741146C8
:10151800FFF7B6FC204610BD7C230A0810B5044628
:101528001422002100F057FB054B20466360054B51
:10153800E36040F2011323818123238210BD00BFA1
:101548007D090020FC08002030B50E4D87B001A8A9
:10155800FFF7E4FF296811F0010410D12846FEF7CF
:10156800A5FD60B101AA21460748FFF7C3FF284639
:10157800FEF7A1FD054A0649034800F0C5F90248EF
:1015880007B030BDF8080020800A00207807002046
:10159800AD140A0810B504461422002100F01BFB04
:1015A800054B20466360054BE36040F2011323813D
:1015B8008123238210BD00BF300B0020980A002031
:1015C80010B50E4C86B001A8FFF7E4FF2368DB07CF
:1015D80010D42046FEF76AFD60B101AA012108482F
:1015E800FFF788FF2046FEF766FD064A06490448CD
:1015F80000F08AF9024806B010BD00BF940A002026
:101608001C0B002078070020AD140A087047002240
:1016180011461046FFF798BC0348044B044A054995
:10162800036000F071B900BF340C0020AC230A0835
:101638007807002015160A0808B5144B33B1FFF7D0
:1016480083FF03681B699847002816DC104B33B1E9
:10165800FFF700FF03681B699847002810DC0D4B53
:101668000BB1AFF300800C4B7BB1FFF7A9FF036808
:101678001B699847002806DC08BDAFF30080E5E742
:10168800AFF30080EBE7AFF3008008BD0000000077
:1016980000000000000000000000000008B5FFF78F
:1016A800CBFFFFF7F3FA014B186008BD400C002090
:1016B8000248034A0349121A00F082BA0040024065
:1016C8000440024050240A0807B5002300931A4634
:1016D8006FF07701FFF726FC03B05DF804FB00000C
:1016E80007B543880A2B08D0502B09D1094B1B6832
:1016F8003BB103B05DF804EB1847FFF7E5FF06E0E0
:10170800002300931A466FF07701FFF70BFC03B034
:101718005DF804FB380C002038B5104C104D2368D8
:10172800AB42104B0CBF012200221A7002D0FFF707
:10173800BFFF2560FFF79AFA00F056FA0A4B1BB173
:10174800FFF794FAAFF3008000210748FFF7F4FB96
:10175800BDE8384000210548FFF7DABB00400240E9
:101768001E1C279A3C0C002000000000E9160A08FD
:1017780010B504460F48FFF7A1FD28B1A4F10D03E9
:10178800022B01D8002010BD00F064F8FFF75AFCC6
:1017980008B1012CF6D9FFF75DFEFFF757FE18B127
:1017A800A4F11203012BEDD9172C8CBF00200120C6
:1017B80010BD00BF740C0020172838B504460D462C
:1017C8000AD8FF2908D0FFF7D3FF28B129462046B9
:1017D800BDE83840FFF76ABA38BD38B504460D464B
:1017E800FFF76CFAFF2810D0062804D84D2323FAF7
:1017F80000F0C30709D42046FFF7BAFF28B12946ED
:101808002046BDE83840FFF761BA38BD2DE9F04100
:1018180090461E4607460D460724B8F1000F04D12E
:10182800C4F1070146FA01F101E046FA04F101F0BA
:1018380001013846FFF7D1FF01212846FFF7CDFF08
:1018480000212846FFF7C9FF14F1FF34E5D2BDE8AF
:10185800F081000038B50B4D296811F001040FD153
:101868002846FEF723FC58B121460748FFF7C4FB7A
:101878002846FEF720FC054A0549034800F044F8CD
:10188800014838BD440C0020480C0020780700208F
:10189800A90F0A0813B5084C00231A4619460093E5
:1018A8002046FFF701FC2046044A054902B0BDE87E
:1018B800104000F029B800BF5C0C00207807002019
:1018C80055100A0870B50C4C0C4E0D4D00212046E1
:1018D800FFF774FC20460B4C3246294600F014F8FA
:1018E80001212046FFF76AFC324629462046BDE81A
:1018F800704000F009B800BF740C00207807002081
:10190800B5110A08840C00200B460146184600F061
:1019180049B90000244B1A68D0075CBF01221A603D
:10192800224B1A68D1075CBF01221A60204B1A6843
:10193800D2075CBF01221A601E4B1A68D0075CBF31
:1019480001221A601C4B1A68D1075CBF01221A6079
:101958001A4B1A68D2075CBF01221A60184B1A6822
:10196800D0075CBF01221A60164B1A68D1075CBF0A
:1019780001221A60144B1A68D2075CBF01221A6050
:10198800124B1A68D0075CBF01221A60104B1A6804
:10199800D1075CBF01221A600E4B1A68D2075CBFE0
:1019A80001221A60704700BFC00C0020BC0C002048
:1019B800B80C0020B40C0020B00C0020AC0C0020A7
:1019C800A80C0020A40C0020A00C00209C0C0020D7
:1019D800980C0020940C0020184B1A68D1075CBFA3
:1019E80001221A60164B1A68D2075CBF01221A60DE
:1019F800144B1A68D0075CBF01221A60124B1A6890
:101A0800D1075CBF01221A60104B1A68D2075CBF6D
:101A180001221A600E4B1A68D0075CBF01221A60B7
:101A28000C4B1A68D1075CBF01221A600A4B1A686E
:101A3800D2075CBF01221A60704700BFE00C00208B
:101A4800DC0C0020D80C0020D40C0020D00C002086
:101A5800CC0C0020C80C0020C40C0020184B1A68BD
:101A6800D1075CBF01221A60164B1A68D2075CBF07
:101A780001221A60144B1A68D0075CBF01221A6051
:101A8800124B1A68D1075CBF01221A60104B1A6802
:101A9800D2075CBF01221A600E4B1A68D0075CBFE0
:101AA80001221A600C4B1A68D1075CBF01221A6028
:101AB8000A4B1A68D2075CBF01221A60704700BF40
:101AC800000D0020FC0C0020F80C0020F40C002075
:101AD800F00C0020EC0C0020E80C0020E40C0020A6
:101AE800244B1A68D0075CBF01221A60224B1A687F
:101AF800D1075CBF01221A60204B1A68D2075CBF6D
:101B080001221A601E4B1A68D0075CBF01221A60B6
:101B18001C4B1A68D1075CBF01221A601A4B1A685D
:101B2800D2075CBF01221A60184B1A68D0075CBF45
:101B380001221A60164B1A68D1075CBF01221A608D
:101B4800144B1A68D2075CBF01221A60124B1A683C
:101B5800D0075CBF01221A60104B1A68D1075CBF1E
:101B680001221A600E4B1A68D2075CBF01221A6064
:101B7800704700BF300D00202C0D0020280D0020DC
:101B8800240D0020200D00201C0D0020180D002021
:101B9800140D0020100D00200C0D0020080D002051
:101BA800040D002010B5054C13462CB10A46014619
:101BB8000220AFF3008010BD204610BD00000000D9
:101BC80010B5431E0A44914204D011F8014B03F8A2
:101BD800014FF8E710BD03460244934202D003F8D0
:101BE800011BFAE77047000038B5124B05461C6820
:101BF800A36BD3B91820FFF7AFF943F20E33A063F4
:101C080003804AF6CD33438041F2342383804EF279
:101C18006D63C3804DF6EC630381052343810B2379
:101C2800838101220023C0E90423A36B00221D61E4
:101C38005A6138BD74070020034613F8012B002AA7
:101C4800FBD1181A013870471D000A085D000A0800
:101C580089000A088D000A080000000048656C6CBD
:101C68006F3220616761696E0000000000000000AB
:101C7800000000000000000000000000C9040A087D
:101C8800D9100A08A1000A08C5010A08E5020A08CD
:101C980001030A0885020A081B030A0853030A08F5
:101CA8006F030A0800000000003E5B4F5B3E3E6B7E
:101CB8004F6B3E1C3E7C3E1C183C7E3C181C577DDE
:101CC800571C1C5E7F5E1C00183C1800FFE7C3E72A
:101CD800FF0018241800FFE7DBE7FF30483A060E3C
:101CE8002629792926407F050507407F05253F5A83
:101CF8003CE73C5A7F3E1C1C08081C1C3E7F1422F3
:101D08007F22145F5F005F5F06097F017F0066899D
:101D1800956A606060606094A2FFA29408047E04E3
:101D28000810207E201008082A1C08081C2A080809
:101D38001E101010100C1E0C1E0C30383E383006C9
:101D48000E3E0E06000000000000005F00000007C5
:101D5800000700147F147F14242A7F2A12231308F3
:101D6800646236495620500008070300001C2241CF
:101D7800000041221C002A1C7F1C2A08083E080873
:101D88000080703000080808080800006060002023
:101D9800100804023E5149453E00427F4000724906
:101DA8004949462141494D331814127F10274545AA
:101DB80045393C4A494931412111090736494949C0
:101DC80036464949291E000014000000403400002E
:101DD8000008142241141414141400412214080297
:101DE800015909063E415D594E7C1211127C7F490A
:101DF8004949363E414141227F4141413E7F49495F
:101E080049417F090909013E414151737F0808088A
:101E18007F00417F41002040413F017F081422415B
:101E28007F404040407F021C027F7F0408107F3EB5
:101E38004141413E7F090909063E4151215E7F0922
:101E4800192946264949493203017F01033F404089
:101E5800403F1F2040201F3F4038403F6314081474
:101E68006303047804036159494D43007F414141AC
:101E78000204081020004141417F0402010204408D
:101E880040404040000307080020545478407F2811
:101E98004444383844444428384444287F38545407
:101EA800541800087E090218A4A49C787F0804042A
:101EB8007800447D40002040403D007F10284400C9
:101EC80000417F40007C047804787C08040478385A
:101ED80044444438FC1824241818242418FC7C088A
:101EE800040408485454542404043F44243C404007
:101EF800207C1C2040201C3C4030403C44281028BA
:101F0800444C9090907C4464544C44000836410002
:101F18000000770000004136080002010204023C7C
:101F28002623263C1EA1A161123A4040207A38544B
:101F380054555921555579412154547841215554C6
:101F4800784020545579400C1E5272123955555517
:101F580059395454545939555454580000457C4102
:101F68000002457D420001457C40F0292429F0F01B
:101F7800282528F07C545545002054547C547C0A6C
:101F8800097F4932494949323248484832324A4839
:101F980048303A4141217A3A42402078009DA0A039
:101FA8007D39444444393D4040403D3C24FF24248D
:101FB800487E4943662B2FFC2F2BFF0929F620C0AA
:101FC800887E090320545479410000447D413048FB
:101FD800484A32384040227A007A0A0A727D0D193E
:101FE800317D2629292F28262929292630484D40A0
:101FF80020380808080808080808382F10C8ACBA9C
:102008002F102834FA00007B000008142A1422221A
:10201800142A1408AA005500AAAA55AA55AA00000D
:1020280000FF00101010FF00141414FF001010FF20
:1020380000FF1010F010F0141414FC001414F70032
:10204800FF0000FF00FF1414F404FC141417101F01
:1020580010101F101F1414141F00101010F000008F
:1020680000001F101010101F10101010F0100000AA
:1020780000FF101010101010101010FF10000000BA
:10208800FF140000FF00FF00001F10170000FC04F1
:10209800F414141710171414F404F40000FF00F7D4
:1020A80014141414141414F700F714141417141037
:1020B800101F101F141414F4141010F010F0000066
:1020C8001F101F0000001F14000000FC140000F087
:1020D80010F01010FF10FF141414FF141010101F2C
:1020E80000000000F010FFFFFFFFFFF0F0F0F0F03D
:1020F800FFFFFF0000000000FFFF0F0F0F0F0F385A
:10210800444438447C2A2A3E147E02020606027E93
:10211800027E0263554941633844443C04407E20B2
:102128001E2006027E020299A5E7A5991C2A492AC3
:102138001C4C7201724C304A4D4D30304878483052
:10214800BC625A463D3E494949007E0101017E2A4A
:102158002A2A2A2A44445F444440514A444040447D
:102168004A51400000FF0103E080FF000008086BAF
:102178006B083612362436060F090F0600001818A9
:102188000000001010003040FF0101001F01011E77
:1021980000191D1712003C3C3C3C000000000000E8
:1021A8000000000000000000C5000A0869010A08D4
:1021B800C9040A08D9100A086D080A08C5010A08DE
:1021C800D5060A0861050A0885020A081B030A08D9
:1021D80053030A086F030A0800000000000000000B
:1021E800A90F0A08F30F0A08CB0F0A08AB0F0A0851
:1021F800D30F0A08DB0F0A08E30F0A08EB0F0A08D7
:10220800000000000000000063100A0855100A08CA
:1022180057100A0866006C6E00666E00636F64658E
:102228000064657461696C000D0A002530313075F1
:1022380020005D20002564002C200028293A200079
:10224800205B00636F6465203D200025690064659C
:102258007461696C73203D20006261756400536588
:102268007269616C0055534253657269616C310043
:102278007479706500706172616D00636D640069E6
:102288006400686E64007374726D0066696C740033
:102298006C766C0061646448616E646C657200728F
:1022A800656D6F766548616E646C657200656E7504
:1022B8006D48616E646C657273004A534F4E537477
:1022C8007265616D4C6F6748616E646C6572006120
:1022D8007070006E6F6E6500747261636500696E80
:1022E800666F007761726E006572726F720070615E
:1022F8006E696300616C6C00000000000000000063
:10230800B5110A08B7110A08000810182028303833
:102318005A00252B3033643A253032750025592D63
:10232800256D2D25645425483A254D3A2553257A9F
:102338000061736374696D650000000000000000AF
:1023480000000000D5130A08F9130A0805140A0842
:10235800D9100A08E1130A08ED130A08E7130A0856
:10236800F3130A08D7130A08DB130A080000000051
:1023780000000000AD140A08F1140A08CB140A087A
:10238800D9100A08C5140A08AF140A08B7140A08AD
:10239800EB140A08BF140A08A9140A080000000070
:1023A8000000000017160A080000000000000000E6
:1023B8000000000000000000000000000000000015
:1023C8000000000000000000000000000000000005
:1023D80000000000000000000000000000000000F5
:1023E80000000000000000000000000000000000E5
:1023F80000000000000000000000000000000000D5
:1024080000000000000000004300000075010A08F9
:102418005D050A08510C0A08C9100A0899110A082A
:1024280081130A08C1130A0821160A089D180A0808
:10243800CD180A081D190A08E1190A08651A0A08B8
:08244800E91A0A080000000077
:042450000000000088
:10245400000103070F1F3F7F0080C0E0F0F8FCFE7F
:102464000000000000000000000000000000000068
:102474000000000000000000000000000000000058
:102484000000000000000000000000000000000048
:1024940000000000000000000000000000000080B8
:1024A4008080000000000000000000000000000028
:1024B400008080C0C0000000000000000000000098
:1024C4000000000000000000000000000000000008
:1024D40000000000000000000000000000000000F8
:1024E40000000000000000000000000000000000E8
:1024F4000000000080C0E0F0F8FCF8E000000000FC
:102504000000000000000000000000000080808047
:10251400808000808000000000808080808000FF38
:10252400FFFF0000000080808080000080800000A9
:1025340080FFFF8080008080008080808000808019
:102544000000000000808000008C8E84000080F871
:10255400F8F8800000000000000000000000000007
:10256400F0F0F0F0F0F0F0F0F0F0F0F0E0E0C08027
:1025740000E0FCFEFFFFFF7FFFFFFFFFFF00000006
:102584000000000000000000000000FEFFC7010181
:10259400010183FFFF00007CFEC70101010183FFED
:1025A400FFFF0038FEC78301010183C7FFFF00005E
:1025B40001FFFF010100FFFF0701010100007FFF90
:1025C40080000000FFFF7F0000FFFFFF000001FF0D
:1025D400FFFF0100000000000000000000000000F8
:1025E400030F3F7F7FFFFFFFFFFFFFFFE7C7C78F9B
:1025F4008F9FBFFFFFC3C0F0FFFFFFFFFFFCFCFC8A
:10260400FCFCFCFCFCF8F8F0F0E0C0000103030360
:10261400030301030300000000010303030301019A
:10262400030100000001030303030101030300008D
:102634000003030000000303000000000000000189
:10264400030303030301000000010301000000036E
:102654000301000000000000000000000000000072
:1026640000000080C0E0F0F9FFFFFFFFFF3F1F0FF5
:1026740087C7F7FFFF1F1F3DFCF8F8F8F87C7DFFC4
:10268400FFFFFFFFFFFFFF7F3F0F07003030000019
:102694000000000000000000000000000000000036
:1026A40000000000FEFEFC0000000000000000002E
:1026B40000000000000000000000000000E0C00076
:1026C40000000000000000000000303000000000A6
:1026D40000000000000000000000000000000000F6
:1026E40000C0FEFFFFFFFFFFFFFFFFFF7F7F3F1FD5
:1026F4000F071F7FFFFFF8F8FFFFFFFFFFFEF8E063
:10270400000000010000000000000000FEFE0000C8
:1027140000FCFEFC0C06060EFCF80000F0F81C0E93
:102724000606060CFFFFFF0000FEFE00000000FC92
:10273400FEFC00183C7E66E6CE84000006FFFF0621
:1027440006FCFEFC0C0606060000FEFE0000C0F8B7
:10275400FC4E4646464E7C7840183C76E6CECC800D
:102764000000000000000000000000000000000065
:102774000000000001070F1F1F3F3F3F3F1F0F03D3
:102784000000000000000000000000000F0F000027
:10279400000F0F0F000000000F0F000003070E0CC6
:1027A40018180C060F0F0F0000010F0E0C180C0F59
:1027B400070100040E0C180C0F070000000F0F0097
:1027C400000F0F0F0000000000000F0F00000007B3
:1027D400070C0C181C0C060600040E0C180C0F0732
:1027E40000000000000000000000000000000000E5
:1027F40000000000000000000000000000000000D5
:1028040000000000000000000000000000000000C4
:1028140000000000000000000000000000000000B4
:1028240000000000000000000000000000000000A4
:102834000000000000000000000000000000000094
:102844000000000000000000000000000000000084
:102854000000000000000000000000000000000074
:1028640039230A0800000000B0230A08D0230A080C
:10287400F0230A080000000000000000000000002F
:102884000000000010240A080000000000000000FE
:102894000000000000000000000000000000000034
:1028A4000000000000000000000000000000000024
:1028B4000000000000000000000000000000000014
:0828C4000000000014070020D1
:1028CC00FFFFFFFF00000102030405060708090AC9
:1028DC000B0C0D0E0F101112131415161718191AC4
:0828EC001B1C1D1E1F2028000B
:0428F40078563412CC
:04000005080A0018CD
:00000001FF
